{
  "contractName": "Donates",
  "abi": [
    {
      "inputs": [],
      "stateMutability": "nonpayable",
      "type": "constructor"
    },
    {
      "inputs": [],
      "name": "ids",
      "outputs": [
        {
          "internalType": "uint256",
          "name": "",
          "type": "uint256"
        }
      ],
      "stateMutability": "view",
      "type": "function",
      "constant": true
    },
    {
      "inputs": [],
      "name": "owner",
      "outputs": [
        {
          "internalType": "address",
          "name": "",
          "type": "address"
        }
      ],
      "stateMutability": "view",
      "type": "function",
      "constant": true
    },
    {
      "inputs": [],
      "name": "donate",
      "outputs": [],
      "stateMutability": "payable",
      "type": "function",
      "payable": true
    },
    {
      "inputs": [],
      "name": "getContractBalance",
      "outputs": [
        {
          "internalType": "uint256",
          "name": "",
          "type": "uint256"
        }
      ],
      "stateMutability": "view",
      "type": "function",
      "constant": true
    },
    {
      "inputs": [
        {
          "internalType": "uint256",
          "name": "amount",
          "type": "uint256"
        }
      ],
      "name": "withdraw",
      "outputs": [],
      "stateMutability": "nonpayable",
      "type": "function"
    }
  ],
  "bytecode": "0x608060405234801561001057600080fd5b50336000806101000a81548173ffffffffffffffffffffffffffffffffffffffff021916908373ffffffffffffffffffffffffffffffffffffffff16021790555061068b806100606000396000f3fe60806040526004361061004a5760003560e01c80632e1a7d4d1461004f5780636f9fb98a146100785780638da5cb5b146100a3578063e7657e15146100ce578063ed88c68e146100f9575b600080fd5b34801561005b57600080fd5b5061007660048036038101906100719190610441565b610103565b005b34801561008457600080fd5b5061008d610225565b60405161009a919061047d565b60405180910390f35b3480156100af57600080fd5b506100b86102bc565b6040516100c591906104d9565b60405180910390f35b3480156100da57600080fd5b506100e36102e0565b6040516100f0919061047d565b60405180910390f35b6101016102e6565b005b60008054906101000a900473ffffffffffffffffffffffffffffffffffffffff1673ffffffffffffffffffffffffffffffffffffffff163373ffffffffffffffffffffffffffffffffffffffff1614610191576040517f08c379a000000000000000000000000000000000000000000000000000000000815260040161018890610551565b60405180910390fd5b66071afd498d00008111156101db576040517f08c379a00000000000000000000000000000000000000000000000000000000081526004016101d2906105bd565b60405180910390fd5b3373ffffffffffffffffffffffffffffffffffffffff166108fc829081150290604051600060405180830381858888f19350505050158015610221573d6000803e3d6000fd5b5050565b60008060009054906101000a900473ffffffffffffffffffffffffffffffffffffffff1673ffffffffffffffffffffffffffffffffffffffff163373ffffffffffffffffffffffffffffffffffffffff16146102b6576040517f08c379a00000000000000000000000000000000000000000000000000000000081526004016102ad90610551565b60405180910390fd5b47905090565b60008054906101000a900473ffffffffffffffffffffffffffffffffffffffff1681565b60015481565b6000339050600360008273ffffffffffffffffffffffffffffffffffffffff1673ffffffffffffffffffffffffffffffffffffffff16815260200190815260200160002060009054906101000a900460ff16610403576000600160008154809291906103519061060c565b919050559050816002600083815260200190815260200160002060006101000a81548173ffffffffffffffffffffffffffffffffffffffff021916908373ffffffffffffffffffffffffffffffffffffffff1602179055506001600360008473ffffffffffffffffffffffffffffffffffffffff1673ffffffffffffffffffffffffffffffffffffffff16815260200190815260200160002060006101000a81548160ff021916908315150217905550505b50565b600080fd5b6000819050919050565b61041e8161040b565b811461042957600080fd5b50565b60008135905061043b81610415565b92915050565b60006020828403121561045757610456610406565b5b60006104658482850161042c565b91505092915050565b6104778161040b565b82525050565b6000602082019050610492600083018461046e565b92915050565b600073ffffffffffffffffffffffffffffffffffffffff82169050919050565b60006104c382610498565b9050919050565b6104d3816104b8565b82525050565b60006020820190506104ee60008301846104ca565b92915050565b600082825260208201905092915050565b7f4f776e6572206f6e6c792063616e207769746864726177000000000000000000600082015250565b600061053b6017836104f4565b915061054682610505565b602082019050919050565b6000602082019050818103600083015261056a8161052e565b9050919050565b7f53686f756c64206265206c657373207468616e20302e30322045686572000000600082015250565b60006105a7601d836104f4565b91506105b282610571565b602082019050919050565b600060208201905081810360008301526105d68161059a565b9050919050565b7f4e487b7100000000000000000000000000000000000000000000000000000000600052601160045260246000fd5b60006106178261040b565b91507fffffffffffffffffffffffffffffffffffffffffffffffffffffffffffffffff82141561064a576106496105dd565b5b60018201905091905056fea2646970667358221220b1712f3343d7e01120e90d4e8484ac51fabc9d014638dfdf840828dac371931864736f6c634300080b0033",
  "immutableReferences": {},
  "source": "// SPDX-License-Identifier: GPL-3.0\n\npragma solidity >=0.7.0 <0.9.0;\nimport \"./DonateInterface.sol\";\n\ncontract Donates is DonateInterface {\n\n    address public owner;\n\n    constructor(){\n        owner = msg.sender;\n    }\n\n    //middelwar\n    modifier isOwner{\n        require(msg.sender == owner, \"Owner only can withdraw\");\n        _;\n    }\n\n    uint public ids;\n\n    mapping(uint=>address) private donateers;\n    mapping(address=>bool) private isDonate;\n\n    //Donate\n    function donate() override payable external{\n        address donateer =  msg.sender;\n\n        if(!isDonate[donateer]){\n            uint id = ids++;\n            donateers[id] = donateer;\n            isDonate[donateer] = true;\n        }\n\n    }\n\n    //Get Contract Balance\n    function getContractBalance()public view isOwner returns(uint){\n        return address(this).balance;\n    }\n\n\n    //Withdraw\n    function withdraw(uint amount) override external isOwner{\n        require(amount  <= 2000000000000000, \"Should be less than 0.02 Eher\");\n        payable(msg.sender).transfer(amount);\n    }\n\n\n}",
  "sourcePath": "/home/abdulrahman/Documents/React/donate/contracts/Donates.sol",
  "compiler": {
    "name": "solc",
    "version": "0.8.11+commit.d7f03943.Emscripten.clang"
  },
  "schemaVersion": "3.4.5",
  "updatedAt": "2022-02-28T18:34:02.461Z",
  "networkType": "ethereum",
  "devdoc": {
    "kind": "dev",
    "methods": {},
    "version": 1
  },
  "userdoc": {
    "kind": "user",
    "methods": {},
    "version": 1
  }
}